:020000021000EC
:10B0000000400020C5DB010005DC010007DC010079
:10B010000000000000000000000000000000000030
:10B0200000000000000000000000000009DC01003A
:10B0300000000000000000000BDC01000DDC01003E
:10B040000FDC01000FDC010069E001000FDC0100F2
:10B050000FDC0100000000000FDC01000FDC01002C
:10B060000FDC01000FDC01000FDC01000FDC010030
:10B070000FDC01000FDC01000FDC01000FDC010020
:10B080000FDC01006DDC01000FDC01000FDC0100B2
:10B090000FDC01000FDC01000FDC01000FDC010000
:10B0A0000FDC01000FDC01000000000000000000C8
:10B0B0000000000000000000000000000000000090
:10B0C000054B0648033310B51B1A062B03D9044B56
:10B0D000002B00D0984710BD4421002044210020BF
:10B0E000000000000648074910B5091A8910CB0F67
:10B0F0005918491003D0044B002B00D0984710BDBD
:10B1000044210020442100200000000010B5074C1D
:10B110002378002B09D1FFF7D3FF054B002B02D07A
:10B12000044800E000BF0123237010BD442100202B
:10B1300000000000A0370200094B10B5002B03D01F
:10B140000849094800E000BF08480368002B02D105
:10B15000FFF7C8FF10BD064B002BF9D09847F7E763
:10B160000000000048210020A037020040210020FC
:10B1700000000000164B002B00D1144B9D464022CE
:10B1800092029A1A924600218B460F461348144A9F
:10B19000121A05F06EFA0F4B002B00D098470E4B99
:10B1A000002B00D098470020002104000D000D481E
:10B1B000002802D00C4800E000BF05F017FA20007C
:10B1C000290002F069FF05F0EBF9C0460000080015
:10B1D000004000200000000000000000442100208A
:10B1E0002825002000000000000000003BDF704721
:10B1F00048DF704710B50400024B036000F024FBE9
:10B20000200010BD7031020010B50400FFF7F2FFFE
:10B21000200002F055FF200010BD000010B5040012
:10B22000024B0360FFF7E6FF200010BD582F02001D
:10B2300010B50400FFF7F2FF200002F041FF2000EC
:10B2400010BD000010B50400024B036000F0FCFAD2
:10B25000200010BD7031020010B50400FFF7F2FFAE
:10B26000200002F02DFF200010BD000010B50400EA
:10B27000024B0360FFF7E6FF200010BD882F02009D
:10B2800010B50400FFF7F2FF200002F019FF2000C4
:10B2900010BD000010B5FFF7ABFF8021C023044AAA
:10B2A000C9035B00D150034800F0D6FC10BDC04676
:10B2B00000E100E028220020A0220121034BD2005F
:10B2C0009950034A193199507047C04600700040A8
:10B2D000040500000A4B0B4A0B499858014099504D
:10B2E0009958802099500122C0001A6019581142C3
:10B2F000FCD1A123024ADB00D05880B27047C0467F
:10B300000070004004050000FF00FFFF07B50422A5
:10B31000019101A900F0AFFA0EBD0000F7B55B4D39
:10B32000280002F021FC2800002102F0F7FBFFF7C3
:10B33000C3FF574E300000F014FA564C01002000B5
:10B3400000F096FC0021200000F098FC3100200065
:10B3500000F0F1FD504E2000311D00F0ECFD4F4992
:10B36000200000F088FC4E4F380000F0FAF9010090
:10B37000200000F07DFC3900200000F0DCFD494B8E
:10B380002000191D00F0D7FD47492000043100F0CE
:10B39000D2FD464F380000F0E4F90100200000F033
:10B3A00067FC3900200000F0C6FD414B2000191D4C
:10B3B00000F0C1FD3F492000043100F0BCFD3E4FCC
:10B3C000380000F0CEF90100200000F051FC3900F7
:10B3D000200000F0B0FD394F2000391D00F0ABFD1A
:10B3E00037492000043100F0A6FD2000354900F067
:10B3F00063FC354A0021300000F092FA200000F092
:10B4000079FCFFF767FF03F08BF904F095FF2F4AF3
:10B410002F4B04F013F900222E4B04F00FF900908B
:10B420000191280002F0A0FB2800002102F076FB29
:10B430002800F32102F08AFA2749061C280002F0AE
:10B44000F1FA8121041C280002F068FB234802F075
:10B45000FDF80021192002F019FC0021182002F04B
:10B4600015FC311C0F48FFF751FF211C1048FFF756
:10B470004DFF0098019904F0B3FF011C3800FFF75D
:10B4800045FF0120FFF7B2FEF7BDC0469021002026
:10B49000A823002028220020B4210020B02F020081
:10B4A000AC210020B023002060210020A023002038
:10B4B000D82100209421002020220020FC210020FF
:10B4C00078210020B80B0000E1B40100CDCCCCCC39
:10B4D000CCCC0C400000503F00007543F823002006
:10B4E000F7B5FFF7F7FE03F01BF904F025FF1E4A3E
:10B4F0001E4B04F0A3F800221D4B04F09FF81D4CD6
:10B50000060020000F0002F02FFB2000002102F0B7
:10B5100005FBF321200002F019FA1749051C200051
:10B5200002F080FA81210190200002F0F7FA13481E
:10B5300002F08CF80021192002F0A8FB002118204D
:10B5400002F0A4FB291C0E48FFF7E0FE01990D480C
:10B55000FFF7DCFE3900300004F042FF011C0A480E
:10B56000FFF7D4FEF7BDC046CDCCCCCCCCCC0C4044
:10B570000000503F9021002000007543F823002078
:10B58000B0230020D8210020FC210020F8B50021A4
:10B59000364802F03BF9FF23354D1A001900280008
:10B5A00000F016FD334C34492200280004F0C2FF9D
:10B5B0003249334800F0D9FD324D0A223249280081
:10B5C00000F0DCFD22003149280004F0B3FF3049CF
:10B5D000304800F0CAFD304D12223049280000F0FA
:10B5E000E5FD2F4F22003900280004F0A3FF2D4E67
:10B5F0002D4A31002D4800F0A9F92D4D22002900D7
:10B600002A4804F097FF2B492B4800F0AEFD122288
:10B610002A492B4800F0CAFD22003900284804F0CE
:10B6200089FF3100274A284800F090F922002900BC
:10B63000254804F07FFF2549254800F096FD122299
:10B640002449254800F0B2FD22003900224804F0C8
:10B6500071FF224F31003800214A00F077F92900AC
:10B660003800220004F066FFF8BDC046902100209B
:10B67000282200208020002041BF0100B62F0200B8
:10B68000A8230020B4210020BB2F02001DB201001E
:10B69000C02F0200AC210020B0230020C52F0200E3
:10B6A0006DB20100D72F0200CA2F020060210020D6
:10B6B00031B90100DC2F0200A0230020E12F02009D
:10B6C000D8210020E62F020094210020F72F02004D
:10B6D00020220020FC2F0200FC21002078210020E5
:10B6E0000130020070B5002504AC24780573A9422E
:10B6F00005D10A4B0A4A25210A4804F023FF0160BC
:10B700000949920052589B0002715B588371A30053
:10B710005B58856043710223C37170BD4D300200D8
:10B72000103002005B3002006C33020007B580224B
:10B73000074BD2051A6000229A6002321A71172351
:10B7400014320093034901330348FFF7CBFF07BDD1
:10B75000D423002000300040E023002001608280DC
:10B760007047006870478088704729DF704728DF7E
:10B770007047036818680130431E9841C0B2704793
:10B7800080235B0510B51969006802F0FFFC040016
:10B790002000FFF7ECFF1128FAD010BD70B51C0097
:10B7A00005000E00FFF7ECFFA40822003100286816
:10B7B000FFF7DBFF1128F8D070BD002210B500683C
:10B7C0009A4203D284588C500432F9E710BD10B568
:10B7D0000430062204F044FF10BD10B504300622E8
:10B7E000002104F046FF10BD10B504000160FFF712
:10B7F000F4FF200010BD807A7047C0687047007C5D
:10B80000704700207047C368585C704770B50D00E2
:10B81000110002680400D6691A00B0470123A3741E
:10B82000A369002B02D021002800984770BD70B595
:10B83000040008000D0005F08DFD2368C2B2290048
:10B84000DB692000984770BD054B10B50833040034
:10B850000360C068002801D004F0F8FE200010BD8D
:10B86000B830020010B50400FFF7EEFF200002F030
:10B8700027FC200010BD10B50400807A031C904204
:10B8800000D9131CDAB22374E06804F0E9FE63699E
:10B890000120002B04D01A6821001268180090477C
:10B8A00010BD0000F8B51D00040017000430104A58
:10B8B00000F0C4F80F4B083323602B1C142D00D963
:10B8C000142300212000A372E16021746774A17425
:10B8D000E17461610C221830DEB204F0CAFE002D62
:10B8E00003D0300004F0A8FEE0602000F8BDC046A0
:10B8F00003280000B8300200407C7047C07C7047CD
:10B9000010B5C274531E9A4102239A1A06329A4005
:10B9100013580C00002B02D001002000984710BDE6
:10B920000B2902D8063189000A50704741617047DF
:10B93000704700697047007D70470369585C704725
:10B9400010B5040002F0BCFB200010BD70B515005E
:10B95000A42204009201043000F070F8044B256129
:10B9600008332800236005F0F5FC2075200070BD29
:10B97000E8300200704770477047002070477047FA
:10B98000704700207047002070470020704700205B
:10B99000704700207047002070470020704700204B
:10B9A000704700207047002070470020704700203B
:10B9B0007047704770477047704710B5040002F039
:10B9C0007FFB200010BD0000064B012208330360FE
:10B9D0006423838000238272C3800381C360036178
:10B9E0007047C04604310200016170478180704792
:10B9F0000120704710B50400034B08330360FFF7C4
:10BA000023FF200010BDC0466831020010B50400BD
:10BA1000FFF7F0FF200002F053FB200010BD0000F4
:10BA200070B504001D00FFF73DFF034B257408337C
:10BA30002000236070BDC0466831020010B50400CC
:10BA4000FFF78CFE024A200013780133137010BDFB
:10BA5000F4230020014B18787047C046F4230020DF
:10BA600010B5C06803681B6A984710BD08B4024B44
:10BA70009C46043808BC604761BA010010B5C06834
:10BA800003685B6A984710BD08B4024B9C460438B3
:10BA900008BC60477DBA010010B5C06803689B6AA6
:10BAA000984710BD08B4024B9C46043808BC604758
:10BAB00099BA010010B5C0680368DB6A984710BDE9
:10BAC00008B4024B9C46043808BC6047B5BA010074
:10BAD00010B5C06803681B6B984710BD08B4024BD3
:10BAE0009C46083808BC6047D1BA010010B5C06850
:10BAF00003685B6B984710BD08B4024B9C4608383E
:10BB000008BC6047EDBA010010B5C06803689B6BC4
:10BB1000984710BD08B4024B9C46083808BC6047E3
:10BB200009BB010010B5C0680468E46BA04710BDF4
:10BB300008B4024B9C46083808BC604725BB01008E
:10BB400010B5C06803681B6C984710BD08B4024B61
:10BB50009C46083808BC604741BB010010B5C0686E
:10BB600003685B6C984710BD08B4024B9C460838CC
:10BB700008BC60475DBB010010B5C06803689B6CE2
:10BB8000984710BD08B4024B9C46083808BC604773
:10BB900079BB010010B5C0680368DB6C984710BD25
:10BBA00008B4024B9C46083808BC604795BB0100AE
:10BBB0000300FC335B6F10B5002B02D05D30FF300B
:10BBC000984710BD0300FC339B6F10B5002B02D0CB
:10BBD0005D30FF30984710BD0100100010B50468BB
:10BBE0001A005D3102AB1B78FF31646AA04710BDBB
:10BBF0007047704770B5050004005D35FF351100D2
:10BC00002800FC34FFF7E3FDE36E002B01D0280091
:10BC1000984770BD0300FC335D301B6FFF3010B5DB
:10BC20000400002B00D098472000FFF7D6FD10BD80
:10BC3000010010B55D311000FF311A00FFF760FE02
:10BC400010BD010010B510005D311A0002AB1B7869
:10BC5000FF3100F06DFA10BD10B5C0680368DB68F5
:10BC6000984710BD10B5C06803681B69984710BDA0
:10BC700088300160704798300160704710B5C06827
:10BC800003685B69984710BD70B50600A436336839
:10BC900004000D00002B05D100F020FA800004F014
:10BCA000CBFC30602000A830037832689B009D50A8
:10BCB00003780133037070BD10B5C068FFF796FEBE
:10BCC00010BD10B50400FFF7C5FE800004F0B4FC01
:10BCD00023009C331860103303600C33436024331B
:10BCE00083602033C3600C3303610523A0342370C9
:10BCF00010BD000030210023F0B5AFB002AA5218E9
:10BD0000137003008C331968040000291DD008A8A3
:10BD100000F062FA08A800F090FA022383429B41E7
:10BD20005B4216AA143305001070537008A800F087
:10BD300082FA1A260100522002AB2A00761BC01894
:10BD400004F08EFCF6B2012501E01C260D00230054
:10BD500088331968002924D008A800F03DFA08A803
:10BD600000F06BFA431C0700B3421ADA1F231A00D3
:10BD70006A4316A817540622022F00D8043A6B43D0
:10BD8000C3185A7008A8079300F055FA079B0100E2
:10BD90003A00981C04F064FC023E0135F61BEDB23B
:10BDA000F6B2230090331968002915D01A79002AB9
:10BDB00012D0022E10D9531CB34201DB023EF2B264
:10BDC0001F20684316ABC2541818FF23437002307B
:10BDD00004F046FC0135EDB2230098331E68002EB6
:10BDE00022D0300005F0B6FAC0B21D2804D83022A7
:10BDF00002AB9B18187004E030211D2302AA5218D0
:10BE00001370302202AB9B181A78092382428041BA
:10BE100031214042181A02AB5B181870322002AB75
:10BE20003100C01804F01CFC27009C373B68002B35
:10BE300002D12000FFF745FF002307932300A03322
:10BE40001B78079A9A4201DB00271EE0079B3A689D
:10BE50009B009E583000FFF786FC2C4B984205D182
:10BE6000301E00D0301F211DFFF760FD079B0133FE
:10BE7000E3E72300A4331B68BA00D6583000FFF76D
:10BE800072FC224B984206D001372300A8331B785E
:10BE90009F42EEDB07E0301E00D0301F210008314A
:10BEA00000F059F9F0E7002B0BD021002931FF31C8
:10BEB0002000FFF7E9FE21003531FF312000FFF7B8
:10BEC000E3FE3022210002AB9B18A8311B780978D1
:10BED000E0685A1E9341026804912100A431096868
:10BEE000DBB203912100A0310978029121009C313D
:10BEF000096801910EA900919668290016AAB04719
:10BF0000E06803681B6D98472FB0F0BD0328000060
:10BF100070B506009C36336804000D00002B01D17B
:10BF2000FFF7CFFEA034237832689B009D50237822
:10BF30000133237070BD10B5FFF7EAFF10BD00009C
:10BF4000184B10B51A00083202601A00040088333A
:10BF5000703283604260FFF785FE2300A4331868C7
:10BF6000002801D004F072FB23009C3318680028DD
:10BF700001D004F06BFB20003130FF3000F0B4F84A
:10BF8000601DFF30FFF760FC2000D830FFF75CFC3D
:10BF90002000B430FFF758FC2000103000F042FEC3
:10BFA000200010BDBC31020010B50400FFF7C8FF2F
:10BFB000200002F085F8200010BD07B56B46D9803F
:10BFC0000633D83002221900FFF755FC07BD0000E8
:10BFD000354BF7B51A00083202601A0088338360C7
:10BFE000030004007032103342601800009301F027
:10BFF0005FFA23000025200088335D609D601D737B
:10C000001D615D611D76DD611D6004331D7727496B
:10C01000AC3000F0AAF82300B433019302221323BA
:10C0200023490198FFF73EFC022320001A00214912
:10C03000D830FFF737FC20001F4FFC30390000F0EC
:10C0400094F81E4E601D042331002022FF30FFF7BC
:10C0500029FC200029303900FF3000F07EF8200054
:10C06000313031002022FF3000F046F820005D30F2
:10C070002100FF30FFF7B8FB2000009B6930E36030
:10C0800010222900FF3004F0F4FA0D490198FFF75F
:10C09000CEFB29002000FFF790FFE0682100FFF7AA
:10C0A000A3FC2000FEBDC046BC3102009831020056
:10C0B0009D310200A2310200A7310200AC31020022
:10C0C000B131020010B50400FFF748FB024A20001E
:10C0D00013780133137010BDF5230020014B18783D
:10C0E0007047C046F5230020704710B5040001F0EA
:10C0F000E7FF200010BD000070B5040015000430FB
:10C10000094AFFF7DFFF00212000084BA572083322
:10C110002360E31CE1720422D9772830616204F0C5
:10C12000A8FA200070BDC046032800006432020057
:10C1300070B50400C3720D000C3011001A0004F039
:10C140008FFA0122E31CDA77A36A002B02D02100C8
:10C150002800984770BD41627047A02210B50400C6
:10C160009201FFF7AFFF200010BDA02210B5040020
:10C170009201FFF763FC200010BD000013B504001E
:10C180000123FFF74DFC074B012223606B46D91DAD
:10C19000002320000B70FFF76EFB034B2000236091
:10C1A00016BDC0467C320200582F020013B50400B1
:10C1B0000423FFF735FC064B04222360002301A96A
:10C1C00020000193FFF757FB024B2000236016BDB0
:10C1D000AC320200882F0200F0B50023050085B0C4
:10C1E00003AE2960037508000F0033707370B370DD
:10C1F00005F0B0F8441E002C1ADB2B7D01930F2BA9
:10C2000016D83A5D2D2A01D101340FE03B19013BCC
:10C210001B787270002110223000337005F026F96F
:10C22000019BEB1818712B7D01332B75023CE2E763
:10C23000280005B0F0BD04307047007D704771DF05
:10C24000704772DF704773DF704775DF704776DFC6
:10C25000704777DF704778DF70477ADF70477CDFA1
:10C2600070477EDF70477FDF704786DF704790DF63
:10C27000704792DF704796DF704798DF704799DF0D
:10C280007047A0DF7047A2DF7047A3DF7047A4DFCD
:10C290007047A6DF7047A9DF704760DF704761DF36
:10C2A000704762DF704763DF704753DF704710DF0E
:10C2B000704711DF70475C300078431E9841C0B270
:10C2C000704703000200002030B56D331C78A04297
:10C2D00013DA156F0301EB181D688D420BD1002096
:10C2E000D98981420AD01B7B9B0707D5743213780A
:10C2F0000130584002E00130E9E7002030BD030082
:10C30000002270B56D331C78A24219DA056F130153
:10C31000EB181D688D4211D10022D989914210D0AD
:10C320001B7B9B070DD50300012474331C70008F09
:10C33000FFF7A1FF42424241D2B202E00132E3E7FD
:10C340000022100070BD02000300002030B56D32E5
:10C350001478A0421BDA1D6F0201AA1815688D42DD
:10C3600013D10020D189814212D0127B110704D54C
:10C3700074331B78013058400AE0520708D55C330B
:10C380001878431E9841C0B202E00130E1E7002076
:10C3900030BDF0B587B0050001936D300678002000
:10C3A000B0422FDA2F6F04013C1927688F4227D142
:10C3B0000020E689864226D0217B0C24214222D00F
:10C3C0002F005C373C7884421DD002230907C90F37
:10C3D0005B1A03A90B706B469B888A60CB802B008D
:10C3E00001227433013C1A7048704E8088803C7082
:10C3F000288FFFF742FF030058425841C0B202E0C5
:10C400000130CDE7002007B0F0BD0300002230B5B9
:10C410006D331C78A24212DA056F1301EB181D6808
:10C420008D420AD10020DA89824209D0187B30235C
:10C430001840431E9841C0B202E00132EAE70020F2
:10C4400030BD7FB50300020000206D331C78A04290
:10C450002ADA156F0301EB181D688D4222D10020E6
:10C46000DC89844221D030211B7B0B421DD0022667
:10C470006946DB06DB0F8D19F31A01A92B80487082
:10C48000012388801000E41874300B7003704C8016
:10C49000CE808D60108FFFF7F0FE030058425841A8
:10C4A000C0B202E00130D2E7002004B070BD10B588
:10C4B00003681B6C984710BD0300002230B56D3334
:10C4C0000400187885B0824227DA256F1301EB1833
:10C4D0001D688D421FD10020DA8982421ED0197B4F
:10C4E000302319421AD06B4658809D1C012301A9A4
:10C4F000D2184A800222CA80220074320B70137054
:10C50000487088808D60208FFFF7B7FE0300584287
:10C510005841C0B202E00132D5E7002005B030BD7D
:10C520000B0010B5273314DB0B001D3313DB0B009E
:10C53000133312DB0B000F3311DB0B000B3310DB5B
:10C54000CB1D10DBCB1C10DBCB17581AC00F8000A3
:10C550000DE028200AE01E2008E0142006E010204C
:10C5600004E00C2002E0082000E00420404240B239
:10C57000FFF76FFE43425841C0B210BD10B5132102
:10C58000008FFFF764FE10BD13B504006846FFF787
:10C5900056FE2069002805D06A4603680132DB692F
:10C5A0002100984713BD0000002337B5040001A8FF
:10C5B0000193FFF77AFE019803F044FE0022074B37
:10C5C00003F03CF803F00CFF021C2069002803D0A4
:10C5D00001680D6A2100A84737BDC0460000D03F62
:10C5E000704710B5040086B018220021684604F098
:10C5F00040F80023A27A9A4200D103336A461370AE
:10C60000A0880A21000101F04BFE6B4618826846A3
:10C61000FFF719FE06B010BD0300F0B55D330C0046
:10C620001A7805000023142191B0934262DA0E00BB
:10C630005E43286E86193068A04209D12000FFF7BA
:10C640005BF90123184255D07368002B02D151E0E9
:10C650000133EAE72F00290033373B7814311A0001
:10C6600008A8019303F0FCFF236820001B6998478A
:10C67000019B04301818C3B201931F2B3AD870687D
:10C68000FFF76FF8010002A8FFF7A6FD236820005E
:10C690001B693E789847182202AB9B1803309855C7
:10C6A0003E7808AB9B19023A02A85A70FFF7C3FD07
:10C6B000023608AB01000222981903F0D1FF3E7840
:10C6C00008AB04369E1923682000DB68984723686E
:10C6D00007001B692000984739000200300003F072
:10C6E000BFFF002301991A0008A8FFF7AAFD6C6399
:10C6F000012000E0002011B0F0BD0A21F0B5D9B052
:10C7000004ABC9188E2311AE5B00040030000B800F
:10C71000FFF7C5FD011E00D067E23388302B00D142
:10C7200049E111D8112B5BD004D8012B21D0102B5B
:10C7300025D05AE2142B00D1CEE0192B00D1DAE03B
:10C74000132B00D051E2A3E0382B00D1FFE106D833
:10C75000322B00D17EE1362B00D1DEE145E2502BB9
:10C7600000D1DBE0522B00D11FE1392B00D03CE29D
:10C7700011E25C342278337AD318237035E2B08822
:10C7800009AD20872900FFF78CFD23002A785C3350
:10C790001A702069002806D03D22036804A95218A7
:10C7A0001B6821009847E288052A0FD9C8212389F0
:10C7B00009018B420AD86B800023AB809133FF3391
:10C7C0002A80EB80208F2900FFF73FFD2300643390
:10C7D0001B78002B00D108E2208F002201211CE1F0
:10C7E00001235B422387230005005C33187023007C
:10C7F0005D331B789D4218DA142600276E43236EA2
:10C800009E19377477743068FFF778F8B8420AD009
:10C810002069B84207D0036832685B6921009C46F2
:10C820003B006646B0470135E1E72069002803D0A8
:10C83000036821005B68984700250C2623006433B9
:10C840001B789D4204DB0023250018006D350AE0AB
:10C8500030006843A36E042218180830002103F04A
:10C8600008FF0135EAE72A78934208DA216F1A01B6
:10C8700089180873216F01338A18D081F3E72300E8
:10C88000002274331A70236820009B699847ACE13A
:10C89000E068002800D1A2E1FEF76BFF002800D07D
:10C8A0009DE107AD05220021280003F0E2FE0123EF
:10C8B0003022EB7013432B70072300216B70093378
:10C8C000AB70A36D0D9109930E910F910A910B918D
:10C8D000208F09AB2A0086E1A56D338A6A8A208FF2
:10C8E0009A4203D10B000A00290001E00B000A0064
:10C8F000FFF7BBFC79E1327A002A00D075E1E068ED
:10C90000002804D021001C233C31FEF747FF20699A
:10C91000002800D169E103689B68FBE00500F3880B
:10C92000039323005D331B789D4200DB5DE11427F8
:10C930006F43236E039ADF193B8993420CD1206920
:10C94000002800D151E1327C036800921D69462322
:10C9500004AA9B183A683DE1BB89039A934222D10D
:10C96000F37CB27C1B021343012299B213403B7447
:10C9700001234A081A4002330B407A745A1E93412D
:10C980003868DBB20493FEF7B9FF049B98420AD0E3
:10C990002069002800D128E103683A685D69210018
:10C9A000049BA84721E10135BBE7208F0B000A005B
:10C9B000FFF771FC19E1F588002D31D14227B389C9
:10C9C000039304ABFF18039B9D421EDA23006433DC
:10C9D0001A780023934215DA0C205843A16E0818E8
:10C9E000B9788C4681798C450AD139888C46818802
:10C9F0008C4505D1391D0422083003F031FE01E0D9
:10CA00000133E7E701350837DDE70022039B208F7C
:10CA1000DB00F618B189013189B2FFF728FCE4E0A8
:10CA2000230005000C2164331A78954200DBDCE01A
:10CA30000B006B43A06EC3181889002808D05889D2
:10CA4000002805D0220008336C321570190057E019
:10CA50000135EAE72000F3886C30002B3DD10C2132
:10CA600042220378A76E4B43FB189B68099304ABE3
:10CA7000D2180A23B58905916B430E33F31803933B
:10CA800023006D330493039B9A4221D00025049B1D
:10CA90001B789D4217DA266F2B01F318059906784B
:10CAA0004E435968F6598E420BD191789E7AB14225
:10CAB00007D111881E89B14203D116791E731689D8
:10CAC000DE810135E3E7158909AB1D800A32DAE71B
:10CAD000208F09A9FFF7CDFB87E0230064331D7881
:10CAE0000C23027801325343AA420EDAA16EC91810
:10CAF0000E89002E06D04E89002E03D00270083118
:10CB0000208FE7E701320C33EEE7206900286CD074
:10CB10000368DB682100984767E0230074331870CE
:10CB20000623F288FF339A4202D1E368002B19D121
:10CB300023006D3318780023B189834255DA256FBD
:10CB40001A01AA18D5898D4239D00133F5E723009F
:10CB5000743318700623F288FF339A4245D1E36894
:10CB6000002B42D009AD0522280003F082FD0121EF
:10CB7000EA782B780A43EA7070220B439343403AD9
:10CB800013432B7007236B700933AB70208F290080
:10CB9000FFF767FB29E0B37BB589022B03D1208F18
:10CBA0002900FFF76CFB23006D33197800238B42BB
:10CBB0001BDA206F1A018218D089A8420DD1206992
:10CBC000002812D0317C036800919D69462304A996
:10CBD00012685B182100A84707E00133E7E700234C
:10CBE00085211A00208FFFF73EFB59B0F0BD10B52C
:10CBF0000400FFF75EFB206F002801D003F026FD44
:10CC0000A06E002801D003F021FD206E002801D085
:10CC100003F01CFD220000235D326D341370D371CC
:10CC2000237010BD10B50400044B08330360FFF7F8
:10CC3000DEFF2000FEF7C0FE200010BDD83202004B
:10CC400010B50400FFF7EEFF200001F039FA2000D4
:10CC500010BD000013B56C4612886180228001006F
:10CC60006A4602480193FFF712FB16BDFFFF000062
:10CC7000F0B5F3B002937AAB1B78070007937CAB57
:10CC80001B7801911400CF4904220EA8099303F0E8
:10CC9000E7FC00210EA8FFF70AFB13ADCA4B1422D4
:10CCA0000021280001260F9303F0E3FC0A230FA9BB
:10CCB00028002B802E732E72FFF7EFFA2823002511
:10CCC00011A80380DB1843804133FF33C380858084
:10CCD000FFF7C3FA2800FFF7BCFA02233B750433C1
:10CCE000BB753B00032233337E751A70019BAB4248
:10CCF0001FD0AC421DD01F23019A5343E618B44203
:10CD000017D03D003335287823783A18013313754E
:10CD100063780230C0B25375287038182278A11C8D
:10CD2000143003F09DFC23782A781F34D3182B701D
:10CD3000E5E70023029A9A421DD0789A9A421AD0C7
:10CD40001F261500029A5643AA190192019AAA4277
:10CD500011D02E782AA8721CC2546978C2180233E6
:10CD6000DCB251700019A91C3200341903F078FCB0
:10CD70001F35E3B2EAE73A00380033321178143055
:10CD80002AAAFFF75EFA0020FFF765FA0024079B46
:10CD90009C420EDA799AA300D058FEF7E4FC8B4B44
:10CDA000984204D13A005D32137801331370013494
:10CDB000EDE73B005D3318780338C0B218701423D8
:10CDC000584303F039FC00230BAA1380799A386684
:10CDD0000292019308930493019B079A934200DB0C
:10CDE00011E2029B1D682800FEF7BBFC01001DA894
:10CDF000FFF7F2F91DA8FFF71EFA04001DA8FFF7C0
:10CE00001CFA022808D1637821781B0210AA0B4370
:10CE100013800123937014E032AE10222100300001
:10CE200003F01EFC637B227B1B02134310AA1380BA
:10CE300000231A21737333730AABC9183000FFF74C
:10CE400032FA2800FEF78FFCA0239B01984212D1F2
:10CE50002800FEF786FC5E4904F072FA002800D133
:10CE6000CAE12800FEF77DFC5A4904F069FA00285F
:10CE700000D1C1E182E22800FEF775FC534B9842D5
:10CE800000D048E12C1E00D02C1F251D2800FEF7E5
:10CE900068FC514904F054FA002813D101221023F0
:10CEA00032AD13432B7023682000DB68984723685A
:10CEB00006001B6920009847310082B22800FFF766
:10CEC000CEF999E12800FEF74CFC444904F038FA09
:10CED000002807D123682000DB6898470088FFF707
:10CEE000BAF989E12800FEF73CFC3D4904F028FA34
:10CEF000002800D180E12000FEF7FEFC23680390AB
:10CF00001B69200098470AABD88014230026049A96
:10CF100031005A433B6E05929B18089A1C605A6078
:10CF20001E745E741C2223A803F0A3FB012264215B
:10CF3000039B93430AAA521813703023039A1A4290
:10CF400013D00CAD03223100280003F092FB102314
:10CF500001221A432A70012213436B70AB78053209
:10CF60009343043A1343AB7028950DAD032200217F
:10CF7000280003F07EFB3223039A1A4212D0FA688B
:10CF8000233B002A06D001212A789A430A43134002
:10CF9000202205E001212A789A430A4313401022F7
:10CFA00013432B700C23039A1A4223D0FA680333DD
:10CFB0000DA9002A16D001204A789A430243134053
:10CFC000202215E0D4320200802000200328000037
:10CFD00098310200A73102009D310200A231020007
:10CFE000AC31020001204A789A43024313401022D8
:10CFF00013434B7006220DADAB7820009343043AE7
:10D000001343AB7023689B69984701210122AB78D9
:10D0100082438B431343AB70019B5B180393029BCA
:10D020000693079A039B934238DA069B5E683000AA
:10D03000FEF799FBA4239B0198422FD1351E00D007
:10D04000351F2E1D3000FEF78CFBD34904F078F914
:10D05000002810D12B6828009B68984724902B68E3
:10D060002800DB6898472B6823AE3081DB682800F6
:10D07000984770810CE03000FEF773FBC74904F05D
:10D080005FF9002804D12B6828009B6898472690F8
:10D09000039B01330393069B0433C1E718AE1422AC
:10D0A0000021300003F0E5FA10AB18930DAB73606C
:10D0B0000AABDB8820003381236800259B689847F2
:10D0C000059A3B6EB0819B180833320023A92800D3
:10D0D0003561FFF7D8F80AABDB88AB4216D00AAB54
:10D0E0009A1D13889D4208DA236829005B69200095
:10D0F000984732ABE8540135F1E7396E059B8C4611
:10D1000063441889002132ABFFF7A4FD049B01336F
:10D11000DBB2049370E02800FEF725FBA4239B01FB
:10D12000984269D12C1E00D02C1F251D2800FEF727
:10D1300018FB994904F004F900285DD02800FEF797
:10D1400010FB974904F0FCF8002855D02800FEF7A2
:10D1500008FB944904F0F4F800284DD02800FEF7AD
:10D1600000FB8E4904F0ECF8002845D0236820002D
:10D17000DB6898470DAE18AD30801422002123A83B
:10D1800003F077FA03220021280003F072FA022349
:10D19000AB7023682000DB689847328880B2801A21
:10D1A00003000121581E8341A87888431843A870C2
:10D1B000F8680E312B78002800D1E6E001208B437F
:10D1C00003430B4020210B432B7010AB239318AB70
:10D1D0002493236823AEDB68328120009847002522
:10D1E000B0810BAA310028003561FFF74EF80DAB76
:10D1F0001B88AB4200D0D9E0019B01330193029B15
:10D2000004330293E8E50024099BA34220D01E00CA
:10D210002500023EF6B23400B54219DA7B9AAB0023
:10D22000D4582000FEF79FFAA0239B01984202D118
:10D230003A00643207E02000FEF795FA5A4B984214
:10D2400004D13A006D321378013313700135E2E7EF
:10D250003B00643318780C23584303F0EDF93B008E
:10D26000B8666D331878A400000103F0E5F97B9EE1
:10D270003867331904930023029301930393049BAB
:10D280009E426ED034682000FEF76BFA010032A88F
:10D29000FEF7A2FF32A8FEF7CEFF050032A8FEF788
:10D2A000CCFF022808D16B7829781B021DAA0B43FA
:10D2B00013800123937019E01022290023A803F0A2
:10D2C000CFF96B7B2A7B1B02134371211DAA1380AC
:10D2D00000230AAA5218137001390AAA52181370AF
:10D2E00022390AABC91823A8FEF7DDFF2000FEF79C
:10D2F0003AFAA0239B01984214D10C20019B0021F3
:10D300005843BB6E1B181C601D9A5A60BB6E0422EA
:10D310001818083003F0ADF9019B03940133DBB218
:10D3200001931CE02000FEF71EFA1F4B984216D115
:10D33000029B3A6F1B01D218211E00D0211F1160E1
:10D34000039951601D99916000213A6FD2181173B1
:10D350003A6FD318D981029B0133DBB202930436B2
:10D360008DE7F868002803D0FEF703FA002831D1D2
:10D370003B6838009B69984773B0F0BD0BAA10A9B1
:10D380000120FEF77EFF089536E701208B4303431B
:10D390000B40102117E7C046D72F02003C33020094
:10D3A0004133020046330200032800000DAA13880F
:10D3B0009D4208DA236829001B692000984732AB98
:10D3C000E8540135F2E70BAB1888002132ABFFF7C8
:10D3D00041FC11E739001C2300223C31F868FEF7BC
:10D3E000ECF9C5E70023F0B504000E0089B0009306
:10D3F0000133019323005D331B78009A9A4253DA7C
:10D4000014255543236E5D192B68B34248D1636BD5
:10D410009E4204D1236831005B6A2000984733683C
:10D4200030001B69984702ABD88033683000DB6856
:10D430002F89984702AA030006323800002104AF62
:10D44000FFF708FC10220021380003F012F92B89A5
:10D450003B8002AB0633BB602B7C002B0ED022003E
:10D460005C321378002B08D0013B13700123BB7092
:10D47000208F3900FEF70DFF00E001936B7C002B3D
:10D480000ED022005C321378002B08D0013B1370C1
:10D490000223BB70208F3900FEF7FBFE00E00193F2
:10D4A000009B01330093A5E7019809B0F0BD00008F
:10D4B00010B50400FEF788FA0E4B002108332360F4
:10D4C00023003333197001235B422387200023009C
:10D4D0003C305C3361631C221970597021661972EB
:10D4E000A1661974597421671976A06503F0C1F813
:10D4F000200010BDD8320200F8B505000E0017005C
:10D500000024BC4208D02B68315D1B682800984776
:10D51000002801D00134F4E72000F8BD704710B5B1
:10D520001C3000F00DFC10BD10B51C3000F0FAFBF3
:10D5300010BD70B5437E0D00002B05D06430040093
:10D5400000F00DFC002801D0002004E0200029009C
:10D5500000F0D9FB012070BD10B51C3000F0F6FBC7
:10D5600010BD0000F7B50193FA23002504009B00CD
:10D5700083600B4B4560083303601C300F001600BE
:10D5800000F0B6FB2000643000F0B2FB6B461B7964
:10D59000276166756576A5762000A375FEBDC04639
:10D5A0004C3302004175827570470000012330B58D
:10D5B000A024C375837D12499B005A58437DC13214
:10D5C0009B005B580F4DC133FF32FF33E4059200DF
:10D5D0009B0015511D51CC2403690B4A64049C50D7
:10D5E0000524243A9C50827D92005458A122D200F6
:10D5F0009C50427D92005158044A995030BDC0461B
:10D600006C3302000C060000240500000C0500002D
:10D61000A02302690020DB00D0500948814204D9D0
:10D620000848814204D9CD2103E0CC21490401E01E
:10D630008021C904044811500521D1507047C046CB
:10D64000A086010090D0030024050000A023002143
:10D650000269DB00D1507047F7B5050000200C00CF
:10D66000019382425CD0161E402E00D940262F0026
:10D670001C37380000F052FBB1222B69D200802108
:10D680009C50012289005A50A97E002901D11A62BA
:10D690001A600024731E2A69A34206D1019B002B45
:10D6A00003D0802302219B00D15001231362130079
:10D6B000FC33D968002902D1996A0029F9D0996A06
:10D6C00000290AD1D960A323DB00D1583800C9B2A0
:10D6D000013400F018FBA642DCD8019A2B69002A1D
:10D6E00004D11A00FC32916A00290AD001210022DB
:10D6F000AA7659611900FC3188680028FCD08A603C
:10D7000007E00121A976D961D16C0029FCD0002164
:10D71000D164FC339A6A002A01D000229A62E0B2F6
:10D72000FEBD0300AC3310B504001970643000F086
:10D73000F5FA0123637610BDF8B500220D00010053
:10D740004276AC31036904000878B121C900585011
:10D75000802189005A5001321A629A60260064368C
:10D76000300000F0EDFA00280ED03000276900F0FC
:10D77000D9FA1E4BF8502369FC331A6A002A0CD1DF
:10D780009A6A002AF9D008E02369002D0AD11A000C
:10D79000FC32916A002905D10EE09A6A002AF3D181
:10D7A0001A62DBE701225A611A00FC3291680029F3
:10D7B000FCD00021916006E00121D961D16C0029E3
:10D7C000FCD00021D1641A000020FC32916A814211
:10D7D0000BD0074990625A5802305A50824204D006
:10D7E000043A534253410230C01AF8BD1C050000F0
:10D7F000C404000010B51823192202490248FFF79B
:10D80000B1FE10BD00400040F823002001707047B9
:10D81000C422102310B592010CB2480081B2002C32
:10D8200002DA504081B289B2013BDBB2002BF3D166
:10D83000080A10BD70B50E001500094C40212000EB
:10D84000FFF76FFF31002000FFF773FE2900200073
:10D85000FFF76FFE01212000FFF76EFF70BDC0468D
:10D86000F823002070B50E00324C40210500200046
:10D87000FFF757FF31002000FFF75BFE012120007A
:10D88000FFF75AFF002801D02B4852E02B78012BDC
:10D890000BD0002B05D0802B05D0812B08D10F2079
:10D8A00004E01D2002E0092000E0042000F0D0F98F
:10D8B0000123032240212000FFF7CEFE2000FFF7C6
:10D8C0002EFE0328E0D12000FFF72EFE06002000E8
:10D8D000FFF72AFE3602304386B22000FFF724FE0F
:10D8E000310004002800FFF793FFE4B28442CBD15B
:10D8F0000220704000F014FF02F01EFD0F4A104B92
:10D9000001F09CFE00220F4B02F012F902F068FDBC
:10D910000021041C00F000FE002807D10A49201C49
:10D9200000F00EFE002803D0074802E0002000E0CF
:10D93000201C70BDF823002000007F4325CE8AA85C
:10D94000893E5F3F000018400000C842F8B50D0056
:10D950002E4C402106002000FFF7E3FE29002000A6
:10D96000FFF7E7FD01212000FFF7E6FE002801D0C8
:10D97000274849E00222E02D12D03378012B0BD04A
:10D98000002B05D0802B05D0812B08D10B2004E083
:10D99000552002E02B2000E0162000F059F9032268
:10D9A00057B201233A0040212000FFF755FE200026
:10D9B000FFF7B5FDB842DBD12000FFF7B5FD07004A
:10D9C0002000FFF7B1FD3F02384387B2E02D0FD1B1
:10D9D000380000F0A5FE02F0AFFC0E4A0E4B01F03D
:10D9E0002DFE0E4A0E4B02F0A3F802F0F9FC0BE0FC
:10D9F0002000FFF799FD390004003000FFF708FF11
:10DA0000E4B28442B4D1E3E7F8BDC046F823002075
:10DA100000007F43992842EA76F6653FCDCCCCCC16
:10DA2000CC6C4740F8B50D1CE5210600FFF71AFF46
:10DA30002149041C281C00F069FD002804D0E321C2
:10DA40003000FFF783FF051C1C49201C00F05EFD21
:10DA500000282CD11949281C00F058FD002826D197
:10DA60000021281C00F06CFD002822D01449281C3D
:10DA700000F052FD00281CD0281C02F05DFC0200C2
:10DA80000B0000200F4902F053F80F4A0F4B01F032
:10DA9000D5FD0600201C0F0002F04EFC02000B001A
:10DAA0003000390000F07AFE02F09AFC02E00348F0
:10DAB00000E0201CF8BDC04600007E4300007F430C
:10DAC0000000A04200003940333333333333C3BF47
:10DAD00070B50D00104C40212000FFF722FE2900F8
:10DAE0002000FFF726FD01212000FFF725FE00287A
:10DAF00001D0FF200EE0012340211A002000FFF793
:10DB0000ABFD2000FFF70BFD0128F2D12000FFF74D
:10DB10000BFDC0B270BDC046F823002070B50D00EB
:10DB2000E7210400FFF7D4FF7E2302001A402A43B6
:10DB3000E6212000FFF77EFE257070BD70B50C0059
:10DB4000E7210500FFF7C4FF042C04D0FB2C04D10F
:10DB5000FB23184001E02043C0B20200E621280068
:10DB6000FFF768FE70BD000070B5144C1822192133
:10DB700005002000FFF716FD11492000FFF748FDC2
:10DB80002000FFF713FD40212000FFF7CAFD01210F
:10DB90002000FFF7D1FD002398420CD1FA2040006D
:10DBA00000F056F829782800FFF7B8FFFB2128007D
:10DBB000FFF7C4FF0123180070BDC046F823002002
:10DBC000A086010003210A4802680A43026009484E
:10DBD00002680A4302600849084A094B9B1A03DDA0
:10DBE000043BC858D050FBDC00F012F8FDF7C2FA35
:10DBF0002405004054050040AC370200802000207E
:10DC000044210020FEE7FEE7FEE7FEE7FEE7FEE731
:10DC1000014A024B1A6070470024F400842000205F
:10DC2000084A0949094B10B51B688858FA22190A95
:10DC30001B0618439200002300F096FC4904C00B19
:10DC4000084310BD0405000000100140B02400206E
:10DC500070B5041E09D0FFF7E3FF050000F014F8CB
:10DC6000FFF7DEFF401B8442F8D870BD0022044B52
:10DC70009A60044A13680133DBB213607047C046F0
:10DC8000FC100140B02400207047000000B51F28A0
:10DC900016D80C4A83009B58032911D8A0220800EB
:10DCA000C133FF33D2059B0000F066FA0208040678
:10DCB000002104E00C2102E0042100E00321D15006
:10DCC00000BDC0466C330200F7B506000D000C0025
:10DCD0008B180193019B671B9C4207D03368217806
:10DCE0001B683000984701340028F3D13800FEBD8E
:10DCF00010B540220021040002F0BBFC00232000EC
:10DD00002364636410BD3F23026C10B5541C234090
:10DD1000446C9C4201D08154036410BD0023036411
:10DD200043647047436C026C934206D03F21C25C4F
:10DD300001330B404364100001E001204042704772
:10DD4000036C406C181A00D540307047436C026C6D
:10DD5000934201D0C05C01E0012040427047036C57
:10DD6000406C5A1C3F231340181A42424241D0B221
:10DD700070470120704710B503681322DB6998478C
:10DD800010BD70470369054A9950FC331A6A002A8E
:10DD9000FCD0002201201A627047C0461C0500001A
:10DDA000030010B55C331A781F23134001221100C1
:10DDB00099400D4B0424D967C221036989005C5046
:10DDC0005A60DA60A0220021D2009950012207494E
:10DDD00052425A50064914305A500C395A500831A0
:10DDE0005A50FFF79BFF10BD04E100E00C05000056
:10DDF0001405000010B51430FFF7A2FF10BD10B5D8
:10DE00001430FFF7A3FF10BD10B51430FFF78AFFE1
:10DE100010BD0000030070B55E331C780269604BD2
:10DE2000D45003005D331C785E4BD4500300613343
:10DE30001C785D4B012C0CD105005F352E78A22596
:10DE4000ED005651050060352E78A125ED005651A4
:10DE500000E00024D4509623DB00994238D9962361
:10DE60001B01994237D996235B01994236D99623F3
:10DE70009B01994234D9E1239B01994232D99623DF
:10DE8000DB01994231D9E123DB0199422FD9962355
:10DE90001B0299422DD9E1231B0299422BD99623CB
:10DEA0005B02994229D9E1235B02994227D9E123F8
:10DEB0009B02994225D93D4B994224D9E123DB02AB
:10DEC000994223D9E1231B03994221D8384B21E001
:10DED0009E23DB021EE09D231B031BE0354B19E054
:10DEE000354B17E0EC239B0314E0344B12E0344B2A
:10DEF00010E0344B0EE0344B0CE0344B0AE0344B72
:10DF000008E0344B06E08023DB0403E0324B01E001
:10DF100080235B0531490024535004232439535096
:10DF20001100FC31CC600C62C12101348900146005
:10DF30005C309460535003781F202200D9B208400F
:10DF4000824080342648FF345BB20251002B13DA42
:10DF50000F230B40083B234C9B089B001B190324F9
:10DF60002140A140FC348C40DD69A543C0248C4095
:10DF700021002943D96111E0194C9B089B001B1912
:10DF800003242140A140C025FC348C40AD005E59E3
:10DF9000A643C0248C40210031435951026070BD1A
:10DFA0000C050000140500006C05000090D0030073
:10DFB00000D0BE0E00B013000050270000A04E009D
:10DFC00000F0750000509D0000F0EB0000903A0159
:10DFD00000E0D70100B0AF0300705F072405000028
:10DFE00000E100E000ED00E0F7B5009308AB1B781E
:10DFF00000250193FA2304009B0083600E4B4560CB
:10E000000833036014300F001600FFF771FE230081
:10E010005C3327611E70009B084A9B0099582300BF
:10E020005D331970019B20009B009A5823005E33DA
:10E03000DD701A70FEBDC046EC3302006C33020086
:10E04000036910B51A00FC32D2680400002A0AD015
:10E05000A322D20099581430C9B2FFF754FE00220F
:10E060002369FC33DA6010BD10B50248FFF7E8FF02
:10E0700010BDC046B424002007B50222032300923D
:10E0800002490348FFF7B0FF07BDC046002000402B
:10E09000B42400207047000010B500F015F8FFF719
:10E0A000F9FF0120FFF7D4FDFDF738F9FDF7F2F88D
:10E0B000024B002BFAD000E000BFF7E700000000A1
:10E0C00010B502F0C3FA10BDC421114A890050589E
:10E0D000104B0340C020000203435350802391396A
:10E0E0009B02FF3953501360A3218023012200209B
:10E0F000DB05C9005A509A60074B10395850C120AF
:10E10000022180001950403019501A607047C046F3
:10E1100000E100E0FF00FFFF001001400A000300E3
:10E12000024330B50220002A00D130BD8022120601
:10E13000914216D00C4A0D4C8A180420A242F4D900
:10E140000B4A8A18A242F0D90A4A4900490803201A
:10E150009142EAD9064A00209142E6D158425841FC
:10E16000E3E7002BE1D0EFE70000F0FFFFFFDF7FE8
:10E170000000F07FFFFF0F0002B47146490849001C
:10E18000095C49008E4402BC7047C0460022430827
:10E190008B4274D303098B425FD3030A8B4244D36F
:10E1A000030B8B4228D3030C8B420DD3FF220902B1
:10E1B00012BA030C8B4202D31212090265D0030B70
:10E1C0008B4219D300E0090AC30B8B4201D3CB0366
:10E1D000C01A5241830B8B4201D38B03C01A5241A8
:10E1E000430B8B4201D34B03C01A5241030B8B42AA
:10E1F00001D30B03C01A5241C30A8B4201D3CB0295
:10E20000C01A5241830A8B4201D38B02C01A524179
:10E21000430A8B4201D34B02C01A5241030A8B427C
:10E2200001D30B02C01A5241CDD2C3098B4201D394
:10E23000CB01C01A524183098B4201D38B01C01A12
:10E24000524143098B4201D34B01C01A5241030989
:10E250008B4201D30B01C01A5241C3088B4201D338
:10E26000CB00C01A524183088B4201D38B00C01AE5
:10E27000524143088B4201D34B00C01A5241411A0C
:10E2800000D20146524110467047FFE701B5002019
:10E2900000F0F0F802BDC0460029F7D076E77047DD
:10E2A00003460B437FD4002243088B4274D30309F7
:10E2B0008B425FD3030A8B4244D3030B8B4228D398
:10E2C000030C8B420DD3FF22090212BA030C8B42BE
:10E2D00002D31212090265D0030B8B4219D300E05E
:10E2E000090AC30B8B4201D3CB03C01A5241830BE3
:10E2F0008B4201D38B03C01A5241430B8B4201D393
:10E300004B03C01A5241030B8B4201D30B03C01ABB
:10E310005241C30A8B4201D3CB02C01A5241830A35
:10E320008B4201D38B02C01A5241430A8B4201D364
:10E330004B02C01A5241030A8B4201D30B02C01A8E
:10E340005241CDD2C3098B4201D3CB01C01A5241F5
:10E3500083098B4201D38B01C01A524143098B427E
:10E3600001D34B01C01A524103098B4201D30B0167
:10E37000C01A5241C3088B4201D3CB00C01A52418C
:10E3800083088B4201D38B00C01A524143088B4251
:10E3900001D34B00C01A5241411A00D201465241EA
:10E3A000104670475DE0CA0F00D04942031000D309
:10E3B0004042534000229C4603098B422DD3030A5E
:10E3C0008B4212D3FC22890112BA030A8B420CD36E
:10E3D000890192118B4208D3890192118B4204D397
:10E3E00089013AD0921100E08909C3098B4201D317
:10E3F000CB01C01A524183098B4201D38B01C01A51
:10E40000524143098B4201D34B01C01A52410309C7
:10E410008B4201D30B01C01A5241C3088B4201D376
:10E42000CB00C01A524183088B4201D38B00C01A23
:10E430005241D9D243088B4201D34B00C01A5241FA
:10E44000411A00D20146634652415B10104601D387
:10E450004042002B00D54942704763465B1000D311
:10E46000404201B5002000F005F802BD0029F8D0B7
:10E4700016E770477047C0468446101C62468C46BB
:10E48000191C634600E0C0461FB501F06DF8002876
:10E4900001D40021C8421FBD10B500F0C1FF4042A9
:10E4A000013010BD10B501F05FF8002801DB00203D
:10E4B00010BD012010BDC04610B501F055F8002870
:10E4C00001DD002010BD012010BDC04610B500F0D8
:10E4D000E7FF002801DC002010BD012010BDC04670
:10E4E00010B500F0DDFF002801DA002010BD01208A
:10E4F00010BDC0468446081C6146FFE71FB500F00A
:10E50000CBF8002801D40021C8421FBD10B500F08F
:10E5100057F84042013010BD10B500F0BDF800289A
:10E5200001DB002010BD012010BDC04610B500F079
:10E53000B3F8002801DD002010BD012010BDC04649
:10E5400010B500F065F8002801DC002010BD0120A6
:10E5500010BDC04610B500F05BF8002801DA0020BD
:10E5600010BD012010BDC046F0B54F464646C0B4B0
:10E570001604360C9946330005042C0C070C150CB8
:10E5800063437E436F4365431C0CAD1964199C467D
:10E59000A64203D980235B02984647446346250C74
:10E5A000EF191D044B464A4343432D0C24046419C0
:10E5B0009918C91920000CBC90469946F0BDC04678
:10E5C000430270B542004C005D0AC30F4802120EB0
:10E5D000460A240EC90FFF2A0FD0FF2C11D00120AC
:10E5E000A24200D070BDB542FCD18B420DD0002AB2
:10E5F000F8D12800431E9841F4E70120002DF1D105
:10E60000EBE70120002EEDD1E9E70020EAE7C04664
:10E610004302F0B542005D0AC30F4802440A4800B5
:10E62000120E000EC90FFF2A1FD0FF2822D0002A89
:10E6300009D16E426E4100280FD1002C0DD100206F
:10E64000002D09D005E0002801D1002C01D08B421B
:10E6500013D0584201231843F0BD002EF7D0484292
:10E660004141012049420843F6E7002DDDD0022058
:10E670004042F1E7002CDAD0F9E78242E9DC04DB22
:10E68000A542E6D80020A542E6D2584243410120E7
:10E690005B421843E0E7C0464302F0B542004C003D
:10E6A0005E0AC30F4802120E450A240EC90FFF2A44
:10E6B00017D0FF2C19D0002A0BD170427041002CCA
:10E6C00017D0002807D04842414101204942084361
:10E6D000F0BD002C13D08B4214D0584201231843B4
:10E6E000F6E70220002EF3D1E3E70220002DEFD160
:10E6F000E1E7002DE5D10020002EE9D0EDE7002D67
:10E70000E9D1EAE7A242E8DC04DBAE42E5D800202A
:10E71000AE42DDD25842434101205B421843D7E765
:10E7200070B5041E28D001F0E7FE9E231B1A962B1D
:10E730000ADC9622D21A94406202520AD8B25202DD
:10E74000520AC005104370BD992B18DC9922D21AC9
:10E750009440114A2240610704D00F210C40042C40
:10E7600000D00432510103D50B4B1A409F231B1AD2
:10E770009201520AD8B2E2E700200022DFE7052228
:10E780002500121AB921D5402200C91A8A40541E08
:10E79000A2412C001443DCE7FFFFFFFBF8B556460F
:10E7A0005F464D464446F0B40F00FD0FAA460903EC
:10E7B0007C002E005F00450F490A7F0D2943C500EC
:10E7C0001803BC46400A570F640DDB0F3843D200D4
:10E7D0009A4500D1AAE06646A61B002E00DCFFE0A9
:10E7E0006346002B39D10300134300D0D9E06B07F7
:10E7F00009D00F232B40042B05D02B1DAB42AD417C
:10E800006D4249191D000B0200D482E0CA4B01344D
:10E810009C4200D1FEE00A005646C84BED081A4063
:10E820005007640552020543120B640D00211203C8
:10E830000B0D1B056405120B1A436308C04CF60749
:10E8400014401C43640064083443280021003CBC8D
:10E8500090469946A246AB46F8BDB74B9C42C6D0FF
:10E8600080231B041843382E00DDEBE01F2E00DD53
:10E870001EE120239B1B9C4603006746BB40984635
:10E8800013004746F3403B436746BA40571EBA4120
:10E8900013430200F240EB1A9D42B6411D008A1A52
:10E8A0007642911B0B0231D54A02560A002E00D146
:10E8B000B4E0300001F020FE0300083B1F2B00DD18
:10E8C000B5E020222900D21AD1409E400A009D4086
:10E8D00032439C4200DDB1E01C1B631C1F2B00DD9A
:10E8E000D5E0202114002800C91A8C40D8408D4062
:10E8F0000443DA40681E854111002543002476E771
:10E900004146314300D134E2310045466B0700D027
:10E910006FE756464807ED08C9080543864B9C42F9
:10E9200035D00A036405120B640D7FE76346E31AD2
:10E930009B46002B00DC8BE06746002F3CD07E4FCF
:10E94000BC4200D153E780273F0438435B46382B55
:10E9500000DCF7E00243501E82410020D2B253197E
:10E960004218AB4289411D00494289180B02CDD59E
:10E97000714B01349C4200D13DE101206F4A6B088C
:10E980000A4028401843D507054351082FE72B00BC
:10E990000B4300D1CBE180231B030B431A03120B63
:10E9A00044E7013E002E6DD1AE1AB5429B41091AD3
:10E9B0005B42C91A350075E70700174300D116E717
:10E9C00001235B429C46E3445B46002B00D0E0E021
:10E9D000AA18AA429B4109185B4259181500C5E7BD
:10E9E000002E75D1661C7605760D012E00DCF3E055
:10E9F000AE1AB0464545BF410E1A7F42F61B37029C
:10EA000000D48FE0551BAA42B641411A76428E1BB4
:10EA10009A464BE756460022002507E7280001F0FA
:10EA20006BFD20300300083B1F2B00DC49E72A0068
:10EA30002838824000259C4200DC4DE73F49E41A1B
:10EA40001140D4E60243501E8241D3B2002222E795
:10EA5000002B00D0F3E0631C9C465B055B0D012B93
:10EA600000DC9FE0344B9C4500D1C3E0AA18091894
:10EA7000AA42804140424118CD0752081543490837
:10EA80006446B4E62C4B9C4200D0ECE6AFE61100A5
:10EA90001F3CE1400C00202B00D17FE04021CB1A2D
:10EAA0009A4015436A1E95410021254300242DE715
:10EAB00033000700203BDF403B00202E70D0402772
:10EAC000BE1BB0400243501E824113430022E2E6C7
:10EAD000002C4FD0184CA44500D1ABE08024240476
:10EAE00076422143382E00DDDFE01F2E00DD43E1BA
:10EAF0002027BC1BA1460C004F46BC40A0462C0062
:10EB00004746F4403C434F46BD406F1EBD41F14077
:10EB10002C43151BAA429241411A5242891A64465B
:10EB20009A46BFE641464546314300D0BEE6002640
:10EB300000240025F2E6C046FF070000FFFF7FFF2C
:10EB4000FFFF0F801F2B59DC2027FF1ABC46070050
:10EB500063469F405B46B9461700DF40B8464F46C4
:10EB600043461F4363469A40531E9A415B463A43CD
:10EB7000D840F4E60C002C435CD0F643002E55D16F
:10EB8000551BAA42A441411A6442091B9A46644695
:10EB900088E6964FBC4200D0D8E628E6002280E7FF
:10EBA00000208FE70B002B43002C00D0C2E0002B8D
:10EBB00000D101E10300134300D118E6AB18AB42CA
:10EBC000B6410918764271180A0200D409E1884A50
:10EBD0001D00114064460AE6002C5BD10E002E4356
:10EBE00000D08AE00100114300D1C2E0010015000D
:10EBF0009A46FCE56446002100258FE620235B420F
:10EC00009C46DC4463460700DF405B46BC46202B45
:10EC100000D1ACE040235F46DB1B98400243501E0E
:10EC20008241634613431A00002098E66F4CA445C6
:10EC300000D057E70100150064469A46D7E5002C3E
:10EC400039D10C002C436ED0DB43002B1AD0674C1B
:10EC5000A44568D0382B00DDA4E01F2B00DDAEE01A
:10EC600020240F00E41AA740B9462F00DF40B84621
:10EC7000A3464F46444627435C46A5406C1EA5412B
:10EC8000D9403D43AD1895429B4109185B42591844
:10EC900064466BE60C002C4315D1010011437BD078
:10ECA000010015009A46514CA1E50D43691E8D41A6
:10ECB0000021ECB22DE74D4CA44534D0802424042F
:10ECC0005B422143C6E7040014434ED0ED084C07D5
:10ECD0002C438025C9082D03294208D0C6082E429E
:10ECE00005D1D208410711430C009A463100620F4A
:10ECF000C900E50011433D4C79E50600164300D1FB
:10ED000075E5AE1AB0464545BF410E1A7F42F61B67
:10ED1000370200D4F4E5551BAA42B641411A7642A7
:10ED2000891B9A4663E50100150064465FE50022F1
:10ED300000257BE5002B3BD00300134315D0ED08E5
:10ED40004B072B438025C9082D03294207D0C4084F
:10ED50002C4204D141070B002100D2081343C90003
:10ED60005A0F1143DD00214C41E5204C3FE50020C6
:10ED700054E700260025D1E534000F00203CE74091
:10ED80003C00202E2BD04027BE1BB1400D43691EF6
:10ED90008D4100212C43BCE6802100260903134C41
:10EDA0000025BBE50D43691E8D410021EDB269E7E9
:10EDB000010015000D4C1AE50100150017E51C00B7
:10EDC0000F00203CE7403C00202B0CD04027FB1AD2
:10EDD00099400D43691E8D410021254352E70021D2
:10EDE000D4E71D0092E50021F3E7C046FF070000CD
:10EDF000FFFF7FFFF0B556464D4644465F46F0B4F0
:10EE00001D000E034C00CB0F87B0070092468146D1
:10EE1000360B640D98466AD06D4B9C4235D08022EB
:10EE2000430F12041343F6001E43C3009946694B77
:10EE300000279C460023644402932B0368001B0BAD
:10EE4000ED0F51469B46400D009500D178E0604B98
:10EE500098426CD05B46DA004B0F802109040B43CB
:10EE600013439B465346D9005A4B9C4600236044AB
:10EE70004246201A6A40924601901F430F2F00D944
:10EE8000B0E05548BF00C0598746374300D088E0FE
:10EE9000002399460233082700260293CDE7434614
:10EEA000B34649460093029B009A9246022B00D03B
:10EEB000BFE1002153460122002689461A40444BF7
:10EEC000002136030C0D2405360B2643434C1B054D
:10EED00026401E437600D207760816434846310086
:10EEE00007B03CBC90469946A246AB46F0BD330005
:10EEF00003434FD0002E00D1BCE1300001F0FCFAFA
:10EF000003000B3B1C2B00DDADE11D220100D31AD9
:10EF100008393A008F408E40DA40B9461643304BEC
:10EF200000279C46002360444442029385E75346F1
:10EF30005A4613432CD1002300219B46023397E706
:10EF40000B4320D05B46002B00D19EE1584601F0D8
:10EF5000D3FA03000B3B1C2B00DD8FE10200594666
:10EF6000083A91408B461D21CB1A5146D9400B00DF
:10EF700059460B4351469B469140194B9C46604471
:10EF80004042002374E7002300219B4601336FE7D2
:10EF900003236DE7002399460133042700260293DB
:10EFA0004BE703230C27029347E70122D51A382D9C
:10EFB00000DCB0E153461A400021002300268946B8
:10EFC0007EE700238026994600223603004B77E730
:10EFD000FF07000001FCFFFF1C340200FFFF0F8051
:10EFE000F30300005E4500D972E100D16DE1019BA1
:10EFF0004D46013B01930023340002935B461E0201
:10F000000B0E1E430B020393330C994633041B0C67
:10F01000494620000093FFF7B9F8009B37004343AF
:10F020000600494620009846FFF736F92C0C0904E3
:10F030000C43A04509D9E419731EA74200D95CE12D
:10F04000A04500D859E1023EE4194346E41A494676
:10F050002000FFF79BF80300009A8046534349467F
:10F0600020009B46FFF718F92A040904120C0A43F2
:10F0700093450DD94346D219013B974200D93AE155
:10F08000934500D837E102235B429C46D219E04405
:10F090005B46D21A4346360433439B460399180C09
:10F0A0000B0C1D00059309045B46090C0C001B04A6
:10F0B0001B0C4443049159436B4368431B190D0CCB
:10F0C000EB189C4203D980246402A44660441C0CC3
:10F0D00009041B04090C20185D18824200D2DEE0EE
:10F0E00000D1D7E0161A029B9C465D1BAC459B41A4
:10F0F0005B42F61AB74200D106E149463000FFF7FD
:10F1000045F8009B04004343494630009846FFF70A
:10F11000C3F82E0C09040E43B04509D9F619631E35
:10F12000B74200D9F3E0B04500D8F0E0023CF61950
:10F130004346F31A494618000293FFF727F8009B4D
:10F1400006004343494602989846FFF7A5F82D0468
:10F1500009042D0C0D43A84509D9ED19731EAF42C2
:10F1600000D9D6E0A84500D8D3E0023EED1924042A
:10F17000210043463143049E059A3000ED1A0B04EA
:10F180000C0C1B0C58436643534354439A19030C0D
:10F190009B189E4203D980225202944664441A0C62
:10F1A00000041B04000C14191B18A54250D34DD0A9
:10F1B00001231943964A019B94466344002B00DCCB
:10F1C000F3E64A0709D00F220A40042A05D00A1D97
:10F1D0008A42894149428B4411005A46D20108D5DE
:10F1E0005A468C4B1A4093468022D2009446019B8B
:10F1F0006344894A934200DD5BE65A46C9085007DA
:10F2000008435602514601225B058146360B5B0DD1
:10F210000A4055E680231B031E4211D05A461A426B
:10F220000ED15E461E433603360B2A0089467B4BC1
:10F2300046E6032B00D1E1E0012BBBD11A40BBE62F
:10F240001E433603360B4246744B39E6002BB1D0D1
:10F250007D194A1EAF4252D91100A542A8D1039A86
:10F260009A42A5D1A6E703003E00283B9E4000231A
:10F27000994654E601F040F9203041E60300524639
:10F28000283B9A400021934677E6504601F034F936
:10F2900020305EE6029B0026AB4200D323E7039EAC
:10F2A0000299B44661448846B045B6415B46764211
:10F2B000F619B218013B0291974213D290424FD8EF
:10F2C00000D18EE0161A9B460DE7894500D28EE6E6
:10F2D00074084B46F60735005B081D434B46DB07B9
:10F2E00002938BE69742EDD10399029CA142E5D9A6
:10F2F0003E1A9B46F7E69846CAE61E00A5E6AC42D3
:10F300003ED874D0110053E70121494252E71C0056
:10F310000EE71E002BE71F2D3CDC20230A00584679
:10F320005B1B9840EA4099400243481E81415E467B
:10F330001143EE404B0709D00F230B40042B05D09F
:10F340000B00191D99429B415B42F61833023CD5D4
:10F350005346012200211A40002601238946AFE5C9
:10F3600002235B429C46039CE344A446029B634405
:10F370009846A045B6417642F6190293B218B1E616
:10F3800003988A1E41008142B6417642F619AD19B2
:10F39000039161E71F225242D31A5A46DA40130002
:10F3A000202D29D040225846551BA8400143481E15
:10F3B000814107200B4318400026002809D00F2266
:10F3C00000261A401900042ABBD10B0070077602F0
:10F3D000360BDB0803439946012253461A400023AB
:10F3E0006EE502998D42BBD89B4600267BE60398CA
:10F3F0009842C5D3110032E70020D7E780265B464C
:10F4000036031E433603360B009A8946034B57E5F5
:10F41000FF030000FFFFFFFEFE070000FF070000E4
:10F42000F0B55F4656464D464446F0B41F035C00B7
:10F43000DB0F9A46194B0E034D00C90F8046360B61
:10F440006D0D8B4691463F0B640D9D4219D0134BB9
:10F450009C421BD00123A54206D018003CBC90461C
:10F460009946A246AB46F0BDBE42F6D1C845F4D19E
:10F47000D34510D0002DF0D1304303005A1E9341E4
:10F48000EBE7310001230143E7D1E0E73A430123F1
:10F49000002AE2D1DEE70023DFE7C046FF070000D5
:10F4A000F0B55F46444656464D46F0B41F033C0B4C
:10F4B0002C4F0E034D00A3465C008446360B6D0DA9
:10F4C000C90F9046640DDB0FBD422BD0254FBC42C7
:10F4D0002ED0002D0ED1304307008146784278416E
:10F4E000002C17D15F463A4314D14B460020002B25
:10F4F0000AD006E0002C02D15846024301D09942BE
:10F500001AD00123484218433CBC90469946A24673
:10F51000AB46F0BD0028F2D058425841012240428B
:10F520001043F1E737000743D0D002204042EBE719
:10F530005F461743CDD0F8E7A542E2DC05DB5E4528
:10F54000DFD808D000205E45DED248424841012382
:10F5500040421843D8E7C445D3D80020C445F4D36B
:10F56000D2E7C046FF070000F0B55F464D4644466F
:10F570005646F0B41C03240BA4462F4C0F034D0039
:10F580005E00C90F80463F0B6D0D8B469146760D90
:10F59000DB0FA54220D0284CA64222D0002D12D14C
:10F5A000384344424441002E20D0002C0DD05C4210
:10F5B000634101245B421C4320003CBC90469946B9
:10F5C000A246AB46F0BD002E17D05B4519D05B4676
:10F5D0005C4201231C43EFE7390002240143EBD1D5
:10F5E000D9E7614602241143E6D1D7E761460A43D1
:10F5F000DBD100240028DFD0E9E761460A43E4D1EB
:10F60000E5E7B54203DD01225C421443D4E7B5428D
:10F61000CDDB6745DBD809D000246745CCD25946FD
:10F620004C426141012449420C43C5E7C845CED84C
:10F630000024C845F3D3BFE7FF070000F0B55F46DD
:10F6400056464D464446F0B40D0399464E002B0BEA
:10F6500087B00700924680469B46760DCC0F002E61
:10F6600069D06D4B9E4235D05B468022DD0012048E
:10F67000430F13432B439B46C3009846674B002719
:10F680009C460023664401934A4615035000D20F5E
:10F6900053462D0B400D914600D176E05E4A9042D4
:10F6A0006CD080225B0F120413435C4AED00944639
:10F6B0001D4353460022DB00604449463618701C47
:10F6C0006140029017430F2F00D9AFE05448BF00AC
:10F6D000C759BF465B461F4300D088E000239B46C6
:10F6E0009846023308270193CEE74946022A6AD09A
:10F6F000032A00D109E2012A00D0BBE11140002217
:10F70000002300259046CCB200212D030A0D1205DE
:10F710002D0B1543434A1B0515401D436D00E4079F
:10F720006D0825434046290007B03CBC90469946E9
:10F73000A246AB46F0BD034352D05B46002B00D13E
:10F740008AE1584600F0D8FE03000B3B1C2B00DD7D
:10F750007BE11D22D31A3A0001005D46DA400839E8
:10F760008D4013008F402B439B46B8462E4B0027FD
:10F770009C46002360444642019385E752462A4353
:10F780002CD100250023022297E752462A4321D09C
:10F79000002D00D154E1280000F0AEFE03000B3B29
:10F7A0001C2B00DD46E11D21CB1A51460200D94039
:10F7B0005346083A954093400D431B4A9446604493
:10F7C0004042002279E7012400220C40124B002520
:10F7D000904699E70025002301226EE703226CE79B
:10F7E00000239B4698460133042701934CE70323EB
:10F7F0000C27019348E700238025984600242D0319
:10F80000054B81E75D464346019A6FE75D464346F7
:10F810002100019A6AE7C046FF07000001FCFFFFD4
:10F820005C340200FFFF0F80F30300004246120C1D
:10F8300091461A0C9446424617044A461B041B0C78
:10F840005A43604690464A4642431000039262463D
:10F850001C003F0C7A437C4342440192220C9246A6
:10F86000019A5244904506D9824680204002804643
:10F87000C24450460390100C049048462404240CC3
:10F880001204121905922A0C2D042D0C68432C0029
:10F89000824648467C4350438146200C804657436D
:10F8A00057444744BA4503D9802040028046C144AA
:10F8B000380C3F04B84648442404240C01900498B2
:10F8C000A044404404905846000C81465846040425
:10F8D000200C8246070048465F434C46434360463F
:10F8E00060436446834650464443380C8446E418DB
:10F8F0006444A34203D980235B029C46E344484608
:10F900003F04230C3F0C2404E419574668436F431B
:10F9100084464D46504655434243380C8146624426
:10F920004A445B44944503D98020400284466544A0
:10F9300003983F04834604983F0C8446E344C34540
:10F9400080414042824610048446019867448446C0
:10F950006744A344BC46A345A4419946D4446442A9
:10F960008742BF41D4458041E144A04699459B412F
:10F970007F424042C8440743120CBA18A045A44134
:10F980005F423B0064422343D71843467D19DB0D99
:10F990006D021D435B465A02059B1A43531E9A4152
:10F9A0005B46DB0D1A4343465B021343EA0107D56E
:10F9B00001225C0813402343EA07029E13436D08AB
:10F9C000574AB218002A4BDD580709D00F201840BB
:10F9D000042805D0181D98429B415B42ED18030096
:10F9E000E80104D54F4A15408022D200B2184E4893
:10F9F000824200DDE7E60124DB08680718436D0258
:10FA0000530580462D0B5B0D0C407DE68022594648
:10FA10001203114208D0154206D115432D03984612
:10FA20002D0B4C46414B6FE65D4615432D032D0BC8
:10FA30003E4B69E603005546283B9D400023BCE64B
:10FA4000504600F059FD2030A8E60300283B9F40B7
:10FA50000023BB46984689E600F04EFD203073E651
:10FA60000124A61A382E07DD00220C4000230025B1
:10FA7000904649E6029EA3E71F2E20DC20222C00A0
:10FA80001800921BF040944093400443581E834159
:10FA90001C43F540630709D00F232340042B05D0F6
:10FAA00023001C1D9C4292415242AD182B021FD5CF
:10FAB000012400220C4001230025904624E61F204B
:10FAC0002C004042821AD440202E1CD04022961B8B
:10FAD000B5402B43581E834107202343184000257F
:10FAE000002809D00F2200251A401C00042AD8D172
:10FAF000230068076D022D0B0124DB0803439846A1
:10FB00000C40002300E60025E3E7802201241203D5
:10FB100015432D0398462D0B0C40044BF4E5C046CD
:10FB2000FF030000FFFFFFFEFE070000FF070000CD
:10FB3000F0B557464E464546E0B40E001100F20FB0
:10FB40009246C500420F180337037400400A4E0F57
:10FB50007F0A3043CF4E17435A00640D520DDB0F1E
:10FB6000C900B24200D1E5E001267340A61AB446AE
:10FB7000534500D1AFE0002E00DC0DE1002A3AD160
:10FB800003000B4300D0E4E06B0709D00F232B40A8
:10FB9000042B05D02B1DAB42AD416D427F191D00DA
:10FBA0003B0200D488E0BB4B01349C4200D110E101
:10FBB0003A00B94B51461A4001235007ED08520252
:10FBC00064050543120B640D0B400021280012034D
:10FBD0000D0D120B64052D0515436208AF4CDB07B4
:10FBE0002C401443640064081C4321001CBC904654
:10FBF0009946A246F0BDA74B9C42C5D080231B046A
:10FC000018436346382B00DDFDE01F2B00DD30E19B
:10FC1000624620239B1A02009A40664690460A00DC
:10FC20009940F24046464B1E994132431143634688
:10FC30000200DA40691A8D429B410D00BA1A5B42FC
:10FC4000D71A3B0235D57A02530A98464346002B11
:10FC500000D1C4E0404600F04FFC0300083B1F2BDE
:10FC600000DDC5E020222900D21A4746D1409F403E
:10FC70000A009D403A439C4200DDC0E01C1B631C0F
:10FC80001F2B00DDE4E0202114002800C91AD84011
:10FC90008C408D400443DA40681E8541170025439F
:10FCA000002471E7424663461A4300D14CE267469E
:10FCB00045466B0700D069E7012351467807ED08F8
:10FCC000FA080B40054373498C4238D0120364058F
:10FCD000120B640D79E7002E00DC9AE0002A47D071
:10FCE0006C4A944200D14FE78022120410436246CE
:10FCF000382A00DC08E10143481E81410022C9B2D4
:10FD00004919D219A942BF410D007F42BF183A02DA
:10FD100000D442E15F4A0134944200D14EE1012017
:10FD20005D4A69083A4028400843D507054357080B
:10FD30009A4629E706000E4300D017E714E729008A
:10FD4000114300D1F9E1802109030A431203120B88
:10FD50003BE701235B429846C4446346002B72D1C3
:10FD6000691A8D429B413F1A5B42FF1A0D0068E7FA
:10FD700002000A4300D107E7012252429046C444E0
:10FD80006246002A00D0E6E06918A942B6413F1851
:10FD90007642F7190D00BAE7002E00D080E0621C11
:10FDA0005205520D012A00DCF9E06A1A91464D45D0
:10FDB000B6413A1A7642921B9046120200D499E05C
:10FDC0004D1BA9428941C71B49427A1A90469A465F
:10FDD0003CE752460123002513400022F5E62800A7
:10FDE00000F08AFB20300300083B1F2B00DC39E7C2
:10FDF0002A002838824000259C4200DC3EE7264F3E
:10FE0000E41A1740C0E60143481E81410022C9B2EE
:10FE100010E7002E00D0F1E0621C94465205520D0E
:10FE2000012A00DCA0E01B4A944500D1C5E0691816
:10FE3000A94292413F185242D2194908D5070D43B1
:10FE400057086446A0E6134B9C4200D0D9E69BE6D7
:10FE500011001F3CE1400C00202B00D180E040212C
:10FE6000CB1A9A4015436A1E95410027254300246A
:10FE70001FE763460200203BDA406346202B71D027
:10FE8000402366469B1B98400143481E8141114315
:10FE90000022CFE6FF070000FFFF7FFFFFFF0F807C
:10FEA000002C48D0CA4CA24200D1A2E07442A14624
:10FEB0008024240427434C46382C00DDDBE01F2C33
:10FEC00000DD44E14E462024A41B3E00A640A2468D
:10FED000B0464C462E00E640B446464664462643AD
:10FEE0005446A5406C1EA54134002C434D46EF40BE
:10FEF0000D1B28E04A4643464D461A4300D0A5E66E
:10FF0000002300240025DEE61F2A5ADC6646202254
:10FF1000921B060096409146B04662460E00D640BF
:10FF2000424616434A4691404A1E914102006046AD
:10FF30003143C240E4E63C002C435AD0F443A1468E
:10FF4000002C52D14D1BA9428941C71B49427F1A3F
:10FF500014009A4675E69E4A944200D0C7E613E61E
:10FF600000227FE700208FE7002C00D0C8E03B0094
:10FF70002B4300D10FE103000B4300D104E66918C5
:10FF8000A9429B413F185B42DF193B0200D41AE1B2
:10FF9000904B0D001F406446F6E59A4689E63A000C
:10FFA0002A43002C5CD1002A75D102000A4300D1FB
:10FFB000CAE007000D009A46E6E5644600220025E7
:10FFC00081E662460600203AD6406246B046202AC4
:10FFD00000D1B7E040226646921B90400143424662
:10FFE000481E8141114300228AE6794CA24200D08A
:10FFF00061E707000D0014009A46C5E5002C41D1C9
:020000022000DC
:100000003C002C4378D0F443A146002C20D0704C07
:10001000A24271D04C46382C00DDB2E01F2C00DD2E
:10002000BCE02026341BA2463C005646B4404E4657
:10003000A0462C00F440A446444666463443A446F9
:100040005446A54064466E1EB54125434C46E740E4
:100050006D188D4289413F184942CF19140056E668
:10006000002A2FD102000A4300D184E007000D00CE
:100070009A46574C88E53D436F1EBD41ECB20027C0
:100080000D1B60E7524CA24236D0744280263604E3
:10009000A1463743BEE702000A4300D174E56A1A5D
:1000A00090464545B6413A1A7642921B9446120252
:1000B00000D4F7E54D1BA9428941C71B49427F1A6D
:1000C0009A4661E502000A433AD0ED087C072C43CA
:1000D0008025FA082D032A4208D0C7082F4205D1EF
:1000E00045072C003A009A46C9080C43670FD20016
:1000F000E5001743364C47E507000D00140043E5C3
:100100003A002A4343D002000A4319D0ED087C0785
:100110002C438025FA082D032A4207D0C6082E4218
:1001200004D147073C003200C9080C43D700620FD6
:10013000E50017439A46264C26E50022002544E5B3
:10014000234C21E5002049E700230025BBE54C4670
:100150003E00203CE6404C46B446202C31D04024A2
:100160004E46A61BB7403D436C1EA54164462C433A
:1001700000270D1BE7E6802200231203144C002504
:10018000A1E53D436F1EBD410027EDB260E70700CA
:100190000D000F4CF8E407000D00F5E44E463C005E
:1001A000203EF440A0464C46202C0ED040244E4623
:1001B000A41BA7403D436F1EBD4144460027254375
:1001C00046E70027CFE70D0073E50027F2E7C046BA
:1001D000FF070000FFFF7FFF0B0330B5134D1A0B25
:1001E0004B005B0DC90F0024AB4211DD104CA34244
:1001F00010DC8024640322430E4CE41A1F2C0CDD17
:100200000D48C31ADA4013005C42002900D11C00DB
:10021000200030BD094BCC18FAE7E040084CA4465A
:1002200063449A4013000343EEE7C046FE03000018
:100230001D0400003304000013040000FFFFFF7FD3
:10024000EDFBFFFF70B5002830D0C317C4185C4029
:10025000C50F200000F050F9174B184A1B1AD21A8C
:100260001F2A18DD164AD21A9440002224035B0587
:10027000240B5B0D0021100024030A0D1205240B32
:100280001443104A1B0514401C436400ED07640826
:100290002C43210070BD210091400A000B21081A57
:1002A000C4405B052403240B5B0DE3E7002500231A
:1002B00000240022DEE7C0461E04000033040000D4
:1002C00013040000FFFF0F8070B5051E28D000F05A
:1002D00013F9154B154A1B1AD21A1F2A16DD2C00CA
:1002E000134A0025D21A94405A052403240B520DB8
:1002F000002124030B0D240B1B0523430D4C120579
:10030000234013435B002800590870BD0B212C00CB
:10031000081AC440954024035A05240B520DE7E700
:1003200000220024E4E7C0461E040000330400005D
:1003300013040000FFFF0F804200120E511C430205
:10034000C9B270B55D0AC40F012915DDE02189002D
:100350008C466D071B0B6244002128000D0D2D05F6
:100360002B431C4D52052B40520813435B00E407FE
:100370005B082343190070BD002A15D1002D1FD042
:10038000280000F0B9F80A281DDC0B232A001B1AEC
:10039000DA4013000200153295400F4A1B03121A6F
:1003A00052051B0B520DD7E7002D06D080221B0BE8
:1003B000120313436D07094ACEE7084A0023CBE72F
:1003C00000220023C8E703000B3B9D402B000025C3
:1003D000E3E7C046FFFF0F8089030000FF0700002E
:1003E0004B0070B55E0D0C03751C640A420F6D0561
:1003F0002243C90FC4006D0D012D2ADD3B4BF318BC
:10040000FE2B1ADC002B42DD8001451EA841D200E4
:100410001043620F0243500704D00F2010400428FD
:1004200000D004328020C004104021D00133FF2BC3
:1004300003D09201520ADBB201E0FF2300225202F4
:10044000520ADB0513435B00C9075B080B43180026
:1004500070BD002E07D01443EFD08020D20080045E
:100460000243FF23D7E722430023002A03D00522BB
:10047000D208FF2B03D05202520ADBB2DFE7002A78
:1004800032D08020C00302435202520AD7E718003C
:10049000173014DB8020000402431E20C01A1F28DE
:1004A0000FDC2500124BF3189D406E1EB5419A409B
:1004B0002B0013432200C2401A430023ABE7002362
:1004C000D5E702256D42EB1A1500DD40202809D042
:1004D000084BF3189A401443621E944122000023F3
:1004E0002A4398E70022F6E70022A8E780FCFFFFF6
:1004F00082FCFFFFA2FCFFFF1C2101231B0498428A
:1005000001D3000C10391B0A984201D3000A0839A4
:100510001B09984201D30009043902A2105C40185B
:100520007047C046040302020101010100000000FF
:10053000000000000B0010B50100180000F022F8C8
:1005400010BD00007FB51D000A4B06001B68D8686F
:10055000002A02D1084C230001E01300074C02934B
:10056000009133002A000649019400F02FF801F0B1
:1005700055F8C046E8200020D73402009C34020021
:10058000A934020070B5054C05001300201E04D0EC
:100590000A000220290000E000BF70BD000000003A
:1005A000084B10B50400002B02D0002100E000BF72
:1005B000054B1868836A002B00D09847200002F092
:1005C000B9FCC04600000000DC3402000EB403B5E4
:1005D000010003AB044804CB0068019300F016F956
:1005E00002B008BC03B01847E82000200E4B70B5DD
:1005F00000251E000D4CE41AA410A54204D0AB0047
:10060000F35898470135F8E702F096FC084B0025AF
:100610001E00084CE41AA410A54204D0AB00F35805
:1006200098470135F8E770BD2821002028210020D7
:10063000282100203C21002010B5034B0100186840
:1006400000F066F810BDC046E820002010B5034B4E
:100650000100186800F016F810BDC046E820002020
:10066000002310B59A4203D0CC5CC4540133F9E79F
:1006700010BD03008218934202D019700133FAE7CB
:100680007047000030B500293ED004390B68002BBC
:1006900000DAC9181D4A13681400002B02D14B6000
:1006A000116031E08B420DD90A688818834203D16A
:1006B00018685B6882180A604B60216024E08A42F7
:1006C00003D813005A68002AF9D11D685C198C42BE
:1006D0000BD10968691858181960824214D1106842
:1006E0005268411819605A600EE08C4202D90C23FE
:1006F000036009E008680C18A24203D1146852682C
:10070000201808604A60596030BDC0461C25002092
:10071000032370B5CD1C9D43083506000C2D01D276
:100720000C2505E0002D03DA0C230020336040E0A7
:10073000A942F9D81F4B1C681A002100002913D0C8
:100740000B685B1B0DD40B2B02D90B60CC181EE081
:100750008C4202D1636813601AE04B6863600C003E
:1007600016E00C004968E9E7134C2368002B03D11D
:10077000300000F0D3FD20602900300000F0CEFDF5
:10078000431CD1D00323C41C9C43A0420AD1256042
:10079000200007220B30231D9043C31A09D05A4270
:1007A000E25006E0211A300000F0B8FD431CEED103
:1007B000BAE770BD1C25002018250020936810B5ED
:1007C000013B9360002B05DA9469A34208DBCBB2AE
:1007D0000A2B05D01368581C10601970C8B201E0CC
:1007E00000F050FE10BDF8B506000F001400D5183B
:1007F000AC4208D021783A003000FFF7DFFF013427
:10080000431CF5D100E00020F8BD0000F0B59FB01A
:1008100006000F0002920593002804D08369002B84
:1008200001D101F043FE7F4B9F4201D1776808E080
:100830007D4B9F4201D1B76803E07C4B9F4200D1C2
:10084000F768BB891B070AD53B69002B07D000233B
:1008500006AD6B6120336B761033AB763DE039002B
:10086000300000F067FE0028F1D001204042D6E0C1
:10087000059A111D12680591002A00DA7FE009929D
:10088000013423782E2B00D18DE021780322684893
:1008900001F0F6FE002807D0654B2A68C01A4023F5
:1008A000834013432B6001342178631C0622614886
:1008B0000293297601F0E4FE002800D19DE05E4B12
:1008C000002B00D090E00722059B073393430833A9
:1008D00005936B69039A9B186B61029C2378002B2C
:1008E00004D1029BE31A049312D003E0252BF8D025
:1008F0000134F3E7049B029A39003000FFF773FFDD
:10090000431C00D186E06A69049B944663446B6192
:100910002378002B7ED00122002352426A6002A974
:100920005432521801342B60EB60AB601370AB652E
:1009300021780522414801F0A3FE002808D03F4B52
:100940002A68C01A0123834013432B600134EFE768
:100950002B68DA0604D55322202102A81218117040
:100960001A0704D553222B2102A8121811702278DD
:100970002A2A00D17CE7099B00200A2105E0524287
:10098000EA60022213432B607AE72278303A092A80
:1009900004D84B4301349B180120F6E7002800D10E
:1009A0006FE709936DE763782A2B0AD1059B023420
:1009B0001A1D1B680592002B01DA01235B42079385
:1009C00063E700230A201A0001346B602178303974
:1009D000092904D84243013452180123F6E7002BB9
:1009E00000D152E7079250E705AB00933A00144B51
:1009F0002900300000F0BCF807E005AB00933A0096
:100A00000F4B2900300000F067FB0390039B01337C
:100A100000D05EE7BB895B0600D526E70B981FB0C8
:100A2000F0BDC0463436020054360200743602006F
:100A3000E6340200EA340200710B0200E0340200E6
:100A4000E7070200F0B58BB014001D1E129906DAFC
:100A5000802424061B191D0014002D2300E0002310
:100A60000B702023149E03229E43462E07D0330092
:100A7000453B59424B411099013ACB18109309ABB1
:100A8000049308AB0393139B00920293109B2200E4
:100A900001932B0000F050FE0700472E02D1119B5E
:100AA000DB072DD5109BFB180793462E14D13B78FE
:100AB000302B0CD10022002320002900FDF7ECFC94
:100AC000002804D10123109A9B1A139A1360139BD8
